:1000000000308A00A3280000831A0A28A400030EE7
:10001000A5000F288312A400030EA500A5140A084A
:10002000AB008A018313A40E0408A6002008A700D1
:100030002108A8002208A9002308AA0083128B1E09
:1000400023280B1960280B1E27288B1840288C307A
:100050008400001C2D280C1870282608840027080E
:10006000A0002808A1002908A2002A08A3002B0844
:100070008A00250E83008312240EA518831609001A
:10008000C830AE002E308400000803195528013016
:10009000A100A001A00B4A28A10B49284A30A000CA
:1000A000A00B50285328800B47280130AD072D089E
:1000B000063C031D5D280130AD008B108A112D28F0
:1000C000AC03F6308100AC08031D6D288316861042
:1000D0000230831286065730AC000B118A112D288E
:1000E0002D08013A03197E28033A03198428013A9E
:1000F00003198A28073A0319902896288E01DB30C5
:100100008F002A308E009B288E01DD308F00313029
:100110008E009B288E01E0308F0080308E009B285F
:100120008E01E7308F0047308E009B288E01EB3028
:100130008F000B308E008316061104308312860662
:100140000C108A112D2803081F3983005730AC008A
:100150000130AD0083161F149F141F150108C0390C
:100160000238810085308312900083160C148312AC
:100170008B160B16C0308B04F63081008E01DB30FD
:100180008F002A308E0000308316850001308600F3
:1001900086108312861083160611831206118316A9
:1001A000051083120510831685108312851083169F
:1001B000051183120511831685118312851183168B
:1001C0008611831286112D08013A0319F128033A8A
:1001D0000319FA28013A03190329073A03190C29CC
:1001E0001529831686118312861183160510831232
:1001F00005141D298316051083120510831685101A
:10020000831285141D298316851083128510831689
:100210000511831205151D29831605118312051179
:1002200083168511831285151D2983168511831266
:0E02300085118316861183128615E32863005C
:02400E00B13FC0
:00000001FF
;PIC16F716
;CRC=0FD5  CREATED="04-abr.-24 11:29"
